:1000000000308A004C2B00008E30F7006608F800A4
:100010006508F900FA01F808031D18287908F800A6
:10002000F9010830F702F808031D1828F701202805
:100030000310F81B1F28F90DF80DF7031828F81303
:100040008A110A12BA2B650803199328ED00690872
:1000500003199328ED07031834287F30ED02031CA1
:1000600093280319932838288130ED070318932823
:100070006D08F700F801F901FA016608F100F117BF
:100080006708F0006808EF001830ED00EE016F1C03
:1000900061286C08FA07031C5328F90A031D53282A
:1000A000F80A0319EE176B08F907031C5A28F80A17
:1000B0000319EE176A08E700E7176708F80703183F
:1000C000EE17EE0DF80CF90CFA0CF10CF00CEF0C2D
:1000D0000310ED0B46280130F70703189328F81B8F
:1000E0007828F10DFA0DF90DF80DF703031993288F
:1000F000F11F8928FA0A031D8928F90A031D892896
:10010000F80A031D8928F80CF90CFA0CF70A0319F0
:1001100093286608EE006A08EE06EE1F9128F8178D
:100120009728F8139728F701F801F901FA0100342C
:10013000690803195D29F5006D0803195D29F502A9
:10014000031CA7287F30F50703185D29AD288130EF
:10015000F502031C5D2903195D297508F700F801F4
:10016000F901FA01F4016A08F300F3176B08F200D1
:100170006C08F1001930F5007008F1020318D0285E
:100180000130F2020318D028F3020318D028F40239
:100190000318D028F40AF30AF20A7008F1070229BA
:1001A0006F08F2020318EB280130F3020318EB2862
:1001B000F4020318EB28F40AF30A6F08F207700838
:1001C000F107031C0229F20A031D0229F30A031D89
:1001D0000229F40A02296E088038F3020318012963
:1001E0000130F40203180129F40A6E088038F3077D
:1001F0006F08F207031CDF28F30A031DDF28F40A47
:10020000DF287A14F50B052910290310F10DF20DE2
:10021000F30DF40D0310FA0DF90DF80DF60DBC28D1
:10022000761C18290310F80CF90CFA0CF60C1B2993
:10023000F70303195D29F61B44290310F10DF20D94
:10024000F30DF40D7008F102031830290130F202A9
:1002500003183029F30203183029F402031C532930
:100260006F08F20203183B290130F30203183B29FF
:10027000F402031C53296E088038F3020318442942
:100280000130F402031C5329FA0A031D5329F90A09
:10029000031D5329F80A031D5329F70A03195D2981
:1002A000F80CF90CFA0C6A08F5006E08F506F51F53
:1002B0005B29F8176129F8136129F701F801F901A1
:1002C000FA018A110A12DF2B80308318EE0683169A
:1002D000A201A30183126A088316A10083126E088B
:1002E0008316A1068312690803197A2A8316A000CF
:1002F000F70083126D080319872A8316A0020319D9
:10030000142A031CC62983126E088316A600A6179A
:1003100083126F088316A5007008A400A3010310C0
:10032000A60CA50CA40CA30CA00B8E29A11F9B2925
:100330002214A02A2210201022166C30840083136D
:10034000B52A2212A11BAE29201CB929A60CA50C86
:10035000A40CA30CF70A03199B2AB929A61BBC29D4
:100360000310A30DA40DA50DA60DF70303199B2AD9
:10037000AE2922173A2A221383126A088316A10093
:10038000A11FC429A617942AA613942A83126D08C4
:100390008316A000F700831269088316A002831257
:1003A0006A088316A600A61783126B088316A50099
:1003B00083126C088316A400A3010310A60CA50CDD
:1003C000A40CA30CA00BDC29A11FE929A214A02ACC
:1003D000A2102010A216703084008313B52AA21236
:1003E000A11BFC29201C072AA60CA50CA40CA30CFD
:1003F000F70A03199B2A072AA61B0A2A0310A30D32
:10040000A40DA50DA60DF70303199B2AFC29A2171D
:100410003A2AA21383126E088316A100A11F122A82
:10042000A617942AA613942A83126E088316A60090
:10043000A61783126F088316A5007008A400A11FD9
:10044000252AA6132215A02A2211A30120106C3000
:1004500084008313B52AA11B502A83126A088316CD
:10046000A100201C3A2AA60CA50CA40CA30CF70A88
:1004700003199B2AA31F4B2AA40A031D4B2AA50A72
:10048000031D4B2AA60A031D4B2AA60CA50CA40C7F
:10049000F70A03199B2A221BBB29A21B092A732ACC
:1004A0008030A606A61F5A2AA02A83126E08831639
:1004B000A100692A83126A088316A100A608031DF9
:1004C000692AA508031D692AA408031D692AF701E2
:1004D000942AA61B732A0310A30DA40DA50DA60D27
:1004E000F70B692A9B2AA11F772AA617942AA6131D
:1004F000942A83126D08F7006E088316A6008312F3
:100500006F088316A5007008A400942A8312690856
:10051000F7006A088316A60083126B088316A500ED
:1005200083126C088316A4002608F8002508F90039
:100530002408FA00D32AF701F801F901FA01D32AB5
:10054000A301A409A509A609A309A30A031DAE2AAC
:10055000A40A031DAE2AA50A0319A60A22189A297D
:10056000A218E8292219242A552A0008A407031CE6
:10057000BF2AA50A031DBF2AA60A03192014840353
:100580000008A507031CC72AA60A03192014840320
:100590000008801F803AA60703182014221AA129F8
:1005A000A21AEF292B2A831200346608ED006A088C
:1005B000ED06ED1FE02A03110310E61B0314132BB5
:1005C0006608ED006908EE006508EE020319EE2AE0
:1005D000ED1F132B0308013A8300132B6A08EE006A
:1005E0006608EE020319FA2AED1F132B0308013ADD
:1005F0008300132B6B08EE006708EE020319062B2D
:10060000ED1F132B0308013A8300132B6C08EE0037
:100610006808EE020319122BED1F132B0308013A91
:100620008300132B031000348E30F7006508F702A7
:100630006608F9006708F800F917F70803192B2B6B
:100640000310F908031D272BF80803192B2BF90CAD
:10065000F80CF70B202BE61F322BF809F909F80AE2
:100660000319F90A8A110A12EC2C653084008313ED
:1006700000080319492B0130F800F701F70B3E2B56
:10068000F80B3D2B4A30F700F70B442B472B800B20
:100690003B2B8A110A12162D840183131F30830508
:1006A00083161F149F141F159F11FF308312A00083
:1006B000E401E301E201E101E001DF017A30DE0063
:1006C0008830DD00D801D701D601D501DC01DB017E
:1006D000DA01D901A8019130A7007E30A6007B3055
:1006E000A5005F30AC002930AB004B30AA0077305A
:1006F000A900A030B0001A30AF001F30AE007E302D
:10070000AD00B401B3017A30B2008730B100831676
:1007100087010030F800053883129200F930831603
:10072000920083122011200883168700831207117C
:100730000C30970083161F109F101F119F118312FA
:100740001F179F1783169F1783121F140030F8007E
:100750001F08C73978049F001F151F19AD2B83167A
:100760001E088312A1001E08A2002208E60021082C
:10077000E50004287A08E8007908E7007808E60030
:100780007708E500EC014030EB001C30EA008B30CC
:10079000E90023207708E5007808E6007908E700FB
:1007A0007A08E800EC007908EB007808EA0077089E
:1007B000E900F001EF01EE018930ED0098287A0898
:1007C000C8007908C7007808C6007708C500340853
:1007D000B8003308B7003208B6003108B5008314FA
:1007E0003808EC003708EB003608EA003508E90065
:1007F0004808F0004708EF004608EE004508ED0005
:1008000064217A08BC007908BB007808BA00770830
:10081000B9002C08E8002B08E7002A08E6002908A0
:10082000E5003C08EC003B08EB003A08EA00390818
:10083000E90023207708E5007808E6007908E7005A
:100840007A08E80083107A08EC007908EB00780851
:10085000EA007708E9005008F0004F08EF004E0862
:10086000EE004D08ED0064217A08C0007908BF0051
:100870007808BE007708BD0083143C08EC003B08F4
:10088000EB003A08EA003908E9005408F000530880
:10089000EF005208EE005108ED0064213008E80036
:1008A0002F08E7002E08E6002D08E5007A08EC0086
:1008B0007908EB007808EA007708E90023207A0835
:1008C000C4007908C3007808C2007708C10028086E
:1008D000E8002708E7002608E6002508E5003C08B0
:1008E000EC003B08EB003A08EA003908E900232055
:1008F00083104008EC003F08EB003E08EA003D088A
:10090000E9007A08F0007908EF007808EE0077082F
:10091000ED0064217708E5007808E6007908E70033
:100920007A08E80083107A08EC007908EB00780870
:10093000EA007708E9004408F0004308EF004208A5
:10094000EE004108ED0064217A08CC007908CB0064
:100950007808CA007708C9006008E8005F08E70067
:100960005E08E6005D08E5004C08EC004B08EB0073
:100970004A08EA004908E900D522031CC82C60088F
:10098000CC005F08CB005E08CA005D08C900E32CFC
:100990004C08E8004B08E7004A08E6004908E50073
:1009A0006408EC006308EB006208EA006108E900F3
:1009B000D522031CE32C6408CC006308CB0062083A
:1009C000CA006108C9004C08E8004B08E7004A0863
:1009D000E6004908E500142B7908A4007808A30074
:1009E0002408F9002308F800F90CF80CF90CF80CAD
:1009F000F90C78089500F90C790C3039F7001708D4
:100A0000CF39770497004008D0003F08CF003E0858
:100A1000CE003D08CD003C08D4003B08D3003A0886
:100A2000D2003908D1006430E500352BAC2B6300CF
:02400E00713F00
:00000001FF
;PIC16F877
